{
  "address": "0x54933190620E394CCe9209E47050Fd29233253c1",
  "abi": [
    {
      "anonymous": false,
      "inputs": [
        {
          "indexed": false,
          "internalType": "address",
          "name": "",
          "type": "address"
        }
      ],
      "name": "Challenged",
      "type": "event"
    },
    {
      "anonymous": false,
      "inputs": [
        {
          "indexed": false,
          "internalType": "address",
          "name": "",
          "type": "address"
        }
      ],
      "name": "Closed",
      "type": "event"
    },
    {
      "anonymous": false,
      "inputs": [
        {
          "indexed": false,
          "internalType": "address",
          "name": "",
          "type": "address"
        },
        {
          "indexed": false,
          "internalType": "uint256",
          "name": "",
          "type": "uint256"
        }
      ],
      "name": "Opened",
      "type": "event"
    },
    {
      "anonymous": false,
      "inputs": [
        {
          "indexed": true,
          "internalType": "address",
          "name": "previousOwner",
          "type": "address"
        },
        {
          "indexed": true,
          "internalType": "address",
          "name": "newOwner",
          "type": "address"
        }
      ],
      "name": "OwnershipTransferred",
      "type": "event"
    },
    {
      "anonymous": false,
      "inputs": [
        {
          "indexed": false,
          "internalType": "address",
          "name": "",
          "type": "address"
        },
        {
          "indexed": false,
          "internalType": "uint256",
          "name": "",
          "type": "uint256"
        }
      ],
      "name": "Withdrawn",
      "type": "event"
    },
    {
      "inputs": [],
      "name": "challengeChannel",
      "outputs": [],
      "stateMutability": "nonpayable",
      "type": "function"
    },
    {
      "inputs": [],
      "name": "defundChannel",
      "outputs": [],
      "stateMutability": "nonpayable",
      "type": "function"
    },
    {
      "inputs": [],
      "name": "fundChannel",
      "outputs": [],
      "stateMutability": "payable",
      "type": "function"
    },
    {
      "inputs": [],
      "name": "owner",
      "outputs": [
        {
          "internalType": "address",
          "name": "",
          "type": "address"
        }
      ],
      "stateMutability": "view",
      "type": "function"
    },
    {
      "inputs": [],
      "name": "renounceOwnership",
      "outputs": [],
      "stateMutability": "nonpayable",
      "type": "function"
    },
    {
      "inputs": [
        {
          "internalType": "address",
          "name": "channel",
          "type": "address"
        }
      ],
      "name": "timeLeft",
      "outputs": [
        {
          "internalType": "uint256",
          "name": "",
          "type": "uint256"
        }
      ],
      "stateMutability": "view",
      "type": "function"
    },
    {
      "inputs": [
        {
          "internalType": "address",
          "name": "newOwner",
          "type": "address"
        }
      ],
      "name": "transferOwnership",
      "outputs": [],
      "stateMutability": "nonpayable",
      "type": "function"
    },
    {
      "inputs": [
        {
          "components": [
            {
              "internalType": "uint256",
              "name": "updatedBalance",
              "type": "uint256"
            },
            {
              "components": [
                {
                  "internalType": "bytes32",
                  "name": "r",
                  "type": "bytes32"
                },
                {
                  "internalType": "bytes32",
                  "name": "s",
                  "type": "bytes32"
                },
                {
                  "internalType": "uint8",
                  "name": "v",
                  "type": "uint8"
                }
              ],
              "internalType": "struct Streamer.Signature",
              "name": "sig",
              "type": "tuple"
            }
          ],
          "internalType": "struct Streamer.Voucher",
          "name": "voucher",
          "type": "tuple"
        }
      ],
      "name": "withdrawEarnings",
      "outputs": [],
      "stateMutability": "nonpayable",
      "type": "function"
    }
  ],
  "transactionHash": "0x8449d3719b61863056eaaf524f8dc14345eb84e71f331e225328dc5c920aee86",
  "args": [],
  "numDeployments": 1,
  "solcInputHash": "ede29527794b2c2b0afd031e03d236f4",
  "bytecode": "0x608060405234801561001057600080fd5b5061001a3361001f565b61006f565b600080546001600160a01b038381166001600160a01b0319831681178455604051919092169283917f8be0079c531659141344cd1fd0a4f28419497f9722a3daafe3b4186f6b6457e09190a35050565b6109f98061007e6000396000f3fe60806040526004361061007b5760003560e01c806388a025661161004e57806388a02566146100e75780638da5cb5b14610107578063bc8641b11461012f578063f2fde38b1461014457600080fd5b8063157f83ad146100805780631e400d601461008a578063405c649c1461009f578063715018a6146100d2575b600080fd5b610088610164565b005b34801561009657600080fd5b50610088610223565b3480156100ab57600080fd5b506100bf6100ba366004610918565b6103a7565b6040519081526020015b60405180910390f35b3480156100de57600080fd5b5061008861041a565b3480156100f357600080fd5b50610088610102366004610946565b61042e565b34801561011357600080fd5b506000546040516001600160a01b0390911681526020016100c9565b34801561013b57600080fd5b50610088610741565b34801561015057600080fd5b5061008861015f366004610918565b6107f5565b33600090815260016020526040902054156101d45760405162461bcd60e51b815260206004820152602560248201527f596f752063757272656e746c7920686176652061206368616e6e656c2072756e6044820152646e696e672160d81b60648201526084015b60405180910390fd5b3360008181526001602090815260409182902034908190558251938452908301527fc4b27f09c64550fd678a5b3c3a00f454814732e346e0f1c79d0add8f980346de91015b60405180910390a1565b336000908152600260205260409020546102755760405162461bcd60e51b81526020600482015260136024820152724368616e6e656c206e6f7420636c6f7365642160681b60448201526064016101cb565b336000908152600260205260409020544210156102d45760405162461bcd60e51b815260206004820152601b60248201527f4368616e6e656c2063616e7420626520636c6f7365642079657421000000000060448201526064016101cb565b33600081815260016020526040808220805490839055905190929083908381818185875af1925050503d8060008114610329576040519150601f19603f3d011682016040523d82523d6000602084013e61032e565b606091505b50509050806103705760405162461bcd60e51b815260206004820152600e60248201526d4661696c656420746f207061792160901b60448201526064016101cb565b6040513381527f13607bf9d2dd20e1f3a7daf47ab12856f8aad65e6ae7e2c75ace3d0c424a40e89060200160405180910390a15050565b6001600160a01b03811660009081526002602052604081205415806103e357506001600160a01b03821660009081526002602052604090205442115b156103f057506000919050565b6001600160a01b038216600090815260026020526040902054610414904290610996565b92915050565b61042261086e565b61042c60006108c8565b565b61043661086e565b60408051823560208083019190915282518083038201815282840190935282519201919091207f19457468657265756d205369676e6564204d6573736167653a0a3332000000006060830152607c820181905290600090609c0160408051601f198184030181529190528051602082012090915060006001826104bf608088016060890161095d565b604080516000815260208082018084529490945260ff9092168282015291880135606082015290870135608082015260a0016020604051602081039080840390855afa158015610513573d6000803e3d6000fd5b505060408051601f1901516001600160a01b038116600090815260016020529190912054909250863510905061057d5760405162461bcd60e51b815260206004820152600f60248201526e4368616e6e656c20636c6f7365642160881b60448201526064016101cb565b6001600160a01b0381166000908152600160205260408120546105a290873590610996565b6001600160a01b0383166000908152600160205260408120805492935083929091906105cf908490610996565b90915550508535600160006105ec6000546001600160a01b031690565b6001600160a01b03166001600160a01b0316815260200190815260200160002054610617919061097e565b6001600061062d6000546001600160a01b031690565b6001600160a01b03166001600160a01b031681526020019081526020016000208190555060006106656000546001600160a01b031690565b6001600160a01b03168260405160006040518083038185875af1925050503d80600081146106af576040519150601f19603f3d011682016040523d82523d6000602084013e6106b4565b606091505b50509050806106f65760405162461bcd60e51b815260206004820152600e60248201526d4661696c656420746f207061792160901b60448201526064016101cb565b604080516001600160a01b0385168152883560208201527f7084f5476618d8e60b11ef0d7d3f06914655adb8793e28ff7f018d4c76d505d5910160405180910390a150505050505050565b336000908152600160205260409020546107a75760405162461bcd60e51b815260206004820152602160248201527f596f7520646f6e277420686176652061206368616e6e656c2072756e6e696e676044820152602160f81b60648201526084016101cb565b6107b242601e61097e565b3360008181526002602090815260409182902093909355519081527f98027b38153f995c4b802a5c7e6365bee3addb25af6b29818c0c304684d8052c9101610219565b6107fd61086e565b6001600160a01b0381166108625760405162461bcd60e51b815260206004820152602660248201527f4f776e61626c653a206e6577206f776e657220697320746865207a65726f206160448201526564647265737360d01b60648201526084016101cb565b61086b816108c8565b50565b6000546001600160a01b0316331461042c5760405162461bcd60e51b815260206004820181905260248201527f4f776e61626c653a2063616c6c6572206973206e6f7420746865206f776e657260448201526064016101cb565b600080546001600160a01b038381166001600160a01b0319831681178455604051919092169283917f8be0079c531659141344cd1fd0a4f28419497f9722a3daafe3b4186f6b6457e09190a35050565b600060208284031215610929578081fd5b81356001600160a01b038116811461093f578182fd5b9392505050565b600060808284031215610957578081fd5b50919050565b60006020828403121561096e578081fd5b813560ff8116811461093f578182fd5b60008219821115610991576109916109ad565b500190565b6000828210156109a8576109a86109ad565b500390565b634e487b7160e01b600052601160045260246000fdfea2646970667358221220e813a87488d19fa46541534e9d6b152dcbfdaab7222acdc41f06f0ca4a11dd9164736f6c63430008040033",
  "devdoc": {
    "kind": "dev",
    "methods": {
      "owner()": {
        "details": "Returns the address of the current owner."
      },
      "renounceOwnership()": {
        "details": "Leaves the contract without owner. It will not be possible to call `onlyOwner` functions anymore. Can only be called by the current owner. NOTE: Renouncing ownership will leave the contract without an owner, thereby removing any functionality that is only available to the owner."
      },
      "transferOwnership(address)": {
        "details": "Transfers ownership of the contract to a new account (`newOwner`). Can only be called by the current owner."
      }
    },
    "version": 1
  },
  "userdoc": {
    "kind": "user",
    "methods": {},
    "version": 1
  },
  "storageLayout": {
    "storage": [
      {
        "astId": 7,
        "contract": "contracts/Streamer.sol:Streamer",
        "label": "_owner",
        "offset": 0,
        "slot": "0",
        "type": "t_address"
      },
      {
        "astId": 164,
        "contract": "contracts/Streamer.sol:Streamer",
        "label": "balances",
        "offset": 0,
        "slot": "1",
        "type": "t_mapping(t_address,t_uint256)"
      },
      {
        "astId": 168,
        "contract": "contracts/Streamer.sol:Streamer",
        "label": "canCloseAt",
        "offset": 0,
        "slot": "2",
        "type": "t_mapping(t_address,t_uint256)"
      }
    ],
    "types": {
      "t_address": {
        "encoding": "inplace",
        "label": "address",
        "numberOfBytes": "20"
      },
      "t_mapping(t_address,t_uint256)": {
        "encoding": "mapping",
        "key": "t_address",
        "label": "mapping(address => uint256)",
        "numberOfBytes": "32",
        "value": "t_uint256"
      },
      "t_uint256": {
        "encoding": "inplace",
        "label": "uint256",
        "numberOfBytes": "32"
      }
    }
  }
}